{
  "address": "0xAEe38Fe1aA96E958d0b8a6F06aa3c70eAbA2EDC2",
  "abi": [
    {
      "inputs": [
        {
          "internalType": "address",
          "name": "_deg",
          "type": "address"
        },
        {
          "internalType": "uint256",
          "name": "_duration",
          "type": "uint256"
        }
      ],
      "stateMutability": "nonpayable",
      "type": "constructor"
    },
    {
      "anonymous": false,
      "inputs": [
        {
          "indexed": true,
          "internalType": "address",
          "name": "user",
          "type": "address"
        },
        {
          "indexed": false,
          "internalType": "uint256",
          "name": "amount",
          "type": "uint256"
        }
      ],
      "name": "Claim",
      "type": "event"
    },
    {
      "anonymous": false,
      "inputs": [
        {
          "indexed": true,
          "internalType": "address",
          "name": "previousOwner",
          "type": "address"
        },
        {
          "indexed": true,
          "internalType": "address",
          "name": "newOwner",
          "type": "address"
        }
      ],
      "name": "OwnershipTransferred",
      "type": "event"
    },
    {
      "inputs": [],
      "name": "DEG",
      "outputs": [
        {
          "internalType": "contract IERC20",
          "name": "",
          "type": "address"
        }
      ],
      "stateMutability": "view",
      "type": "function"
    },
    {
      "inputs": [
        {
          "internalType": "address",
          "name": "",
          "type": "address"
        }
      ],
      "name": "alreadyClaimed",
      "outputs": [
        {
          "internalType": "uint256",
          "name": "",
          "type": "uint256"
        }
      ],
      "stateMutability": "view",
      "type": "function"
    },
    {
      "inputs": [
        {
          "internalType": "address",
          "name": "_to",
          "type": "address"
        },
        {
          "internalType": "uint256",
          "name": "_amount",
          "type": "uint256"
        },
        {
          "internalType": "bytes32[]",
          "name": "_proof",
          "type": "bytes32[]"
        }
      ],
      "name": "claim",
      "outputs": [],
      "stateMutability": "nonpayable",
      "type": "function"
    },
    {
      "inputs": [],
      "name": "endTimestamp",
      "outputs": [
        {
          "internalType": "uint256",
          "name": "",
          "type": "uint256"
        }
      ],
      "stateMutability": "view",
      "type": "function"
    },
    {
      "inputs": [
        {
          "internalType": "address",
          "name": "_to",
          "type": "address"
        },
        {
          "internalType": "uint256",
          "name": "_amount",
          "type": "uint256"
        }
      ],
      "name": "getLeaf",
      "outputs": [
        {
          "internalType": "bytes32",
          "name": "",
          "type": "bytes32"
        }
      ],
      "stateMutability": "pure",
      "type": "function"
    },
    {
      "inputs": [
        {
          "internalType": "address",
          "name": "_to",
          "type": "address"
        },
        {
          "internalType": "uint256",
          "name": "_amount",
          "type": "uint256"
        },
        {
          "internalType": "bytes32[]",
          "name": "_proof",
          "type": "bytes32[]"
        }
      ],
      "name": "isClaimable",
      "outputs": [
        {
          "internalType": "bool",
          "name": "",
          "type": "bool"
        }
      ],
      "stateMutability": "view",
      "type": "function"
    },
    {
      "inputs": [],
      "name": "owner",
      "outputs": [
        {
          "internalType": "address",
          "name": "",
          "type": "address"
        }
      ],
      "stateMutability": "view",
      "type": "function"
    },
    {
      "inputs": [],
      "name": "renounceOwnership",
      "outputs": [],
      "stateMutability": "nonpayable",
      "type": "function"
    },
    {
      "inputs": [],
      "name": "revoke",
      "outputs": [],
      "stateMutability": "nonpayable",
      "type": "function"
    },
    {
      "inputs": [],
      "name": "root",
      "outputs": [
        {
          "internalType": "bytes32",
          "name": "",
          "type": "bytes32"
        }
      ],
      "stateMutability": "view",
      "type": "function"
    },
    {
      "inputs": [
        {
          "internalType": "uint256",
          "name": "_duration",
          "type": "uint256"
        }
      ],
      "name": "setEndTime",
      "outputs": [],
      "stateMutability": "nonpayable",
      "type": "function"
    },
    {
      "inputs": [
        {
          "internalType": "bytes32",
          "name": "_root",
          "type": "bytes32"
        }
      ],
      "name": "setMerkleRoot",
      "outputs": [],
      "stateMutability": "nonpayable",
      "type": "function"
    },
    {
      "inputs": [
        {
          "internalType": "address",
          "name": "newOwner",
          "type": "address"
        }
      ],
      "name": "transferOwnership",
      "outputs": [],
      "stateMutability": "nonpayable",
      "type": "function"
    }
  ],
  "transactionHash": "0x03c871c9debea6ec9944b5f8b97682a5d4b773060024c0d199df50b0dab1bfde",
  "args": [
    "0x9f285507Ea5B4F33822CA7aBb5EC8953ce37A645",
    5184000
  ],
  "numDeployments": 1,
  "solcInputHash": "dcc057129021bbf114582449348fb08a",
  "bytecode": "0x60a06040523480156200001157600080fd5b5060405162001b4a38038062001b4a833981810160405281019062000037919062000218565b620000576200004b620000a760201b60201c565b620000af60201b60201c565b8173ffffffffffffffffffffffffffffffffffffffff1660808173ffffffffffffffffffffffffffffffffffffffff168152505080426200009991906200028e565b6001819055505050620002c9565b600033905090565b60008060009054906101000a900473ffffffffffffffffffffffffffffffffffffffff169050816000806101000a81548173ffffffffffffffffffffffffffffffffffffffff021916908373ffffffffffffffffffffffffffffffffffffffff1602179055508173ffffffffffffffffffffffffffffffffffffffff168173ffffffffffffffffffffffffffffffffffffffff167f8be0079c531659141344cd1fd0a4f28419497f9722a3daafe3b4186f6b6457e060405160405180910390a35050565b600080fd5b600073ffffffffffffffffffffffffffffffffffffffff82169050919050565b6000620001a58262000178565b9050919050565b620001b78162000198565b8114620001c357600080fd5b50565b600081519050620001d781620001ac565b92915050565b6000819050919050565b620001f281620001dd565b8114620001fe57600080fd5b50565b6000815190506200021281620001e7565b92915050565b6000806040838503121562000232576200023162000173565b5b60006200024285828601620001c6565b9250506020620002558582860162000201565b9150509250929050565b7f4e487b7100000000000000000000000000000000000000000000000000000000600052601160045260246000fd5b60006200029b82620001dd565b9150620002a883620001dd565b9250828201905080821115620002c357620002c26200025f565b5b92915050565b608051611850620002fa60003960008181610431015281816105ac01528181610646015261073801526118506000f3fe608060405234801561001057600080fd5b50600436106100cf5760003560e01c8063b6549f751161008c578063e3b93b6011610066578063e3b93b60146101d8578063ebf0c717146101f6578063f2fde38b14610214578063f54b893b14610230576100cf565b8063b6549f7514610182578063be7bcba01461018c578063ccb98ffc146101bc576100cf565b80633d13f874146100d4578063715018a6146100f05780637cb64759146100fa5780638da5cb5b146101165780639641f52114610134578063a85adeab14610164575b600080fd5b6100ee60048036038101906100e99190610dfa565b610260565b005b6100f86104cb565b005b610114600480360381019061010f9190610ea4565b6104df565b005b61011e6104f1565b60405161012b9190610ee0565b60405180910390f35b61014e60048036038101906101499190610efb565b61051a565b60405161015b9190610f4a565b60405180910390f35b61016c61054d565b6040516101799190610f74565b60405180910390f35b61018a610553565b005b6101a660048036038101906101a19190610dfa565b61068c565b6040516101b39190610faa565b60405180910390f35b6101d660048036038101906101d19190610fc5565b610719565b005b6101e0610736565b6040516101ed9190611051565b60405180910390f35b6101fe61075a565b60405161020b9190610f4a565b60405180910390f35b61022e6004803603810190610229919061106c565b610760565b005b61024a6004803603810190610245919061106c565b6107e3565b6040516102579190610f74565b60405180910390f35b60015442106102a4576040517f08c379a000000000000000000000000000000000000000000000000000000000815260040161029b906110f6565b60405180910390fd5b6000600360008673ffffffffffffffffffffffffffffffffffffffff1673ffffffffffffffffffffffffffffffffffffffff1681526020019081526020016000205414610326576040517f08c379a000000000000000000000000000000000000000000000000000000000815260040161031d90611162565b60405180910390fd5b6000848460405160200161033b9291906111eb565b60405160208183030381529060405280519060200120905060006103a3848480806020026020016040519081016040528093929190818152602001838360200280828437600081840152601f19601f82011690508083019250505050505050600254846107fb565b9050806103e5576040517f08c379a00000000000000000000000000000000000000000000000000000000081526004016103dc90611263565b60405180910390fd5b6001600360008873ffffffffffffffffffffffffffffffffffffffff1673ffffffffffffffffffffffffffffffffffffffff1681526020019081526020016000208190555061047586867f000000000000000000000000000000000000000000000000000000000000000073ffffffffffffffffffffffffffffffffffffffff166108129092919063ffffffff16565b8573ffffffffffffffffffffffffffffffffffffffff167f47cee97cb7acd717b3c0aa1435d004cd5b3c8c57d70dbceb4e4458bbd60e39d4866040516104bb9190610f74565b60405180910390a2505050505050565b6104d3610898565b6104dd6000610916565b565b6104e7610898565b8060028190555050565b60008060009054906101000a900473ffffffffffffffffffffffffffffffffffffffff16905090565b6000828260405160200161052f9291906111eb565b60405160208183030381529060405280519060200120905092915050565b60015481565b61055b610898565b600154421161059f576040517f08c379a0000000000000000000000000000000000000000000000000000000008152600401610596906112cf565b60405180910390fd5b61068a6105aa6104f1565b7f000000000000000000000000000000000000000000000000000000000000000073ffffffffffffffffffffffffffffffffffffffff166370a08231306040518263ffffffff1660e01b81526004016106039190610ee0565b602060405180830381865afa158015610620573d6000803e3d6000fd5b505050506040513d601f19601f820116820180604052508101906106449190611304565b7f000000000000000000000000000000000000000000000000000000000000000073ffffffffffffffffffffffffffffffffffffffff166108129092919063ffffffff16565b565b60008085856040516020016106a29291906111eb565b604051602081830303815290604052805190602001209050600061070a858580806020026020016040519081016040528093929190818152602001838360200280828437600081840152601f19601f82011690508083019250505050505050600254846107fb565b90508092505050949350505050565b610721610898565b804261072d9190611360565b60018190555050565b7f000000000000000000000000000000000000000000000000000000000000000081565b60025481565b610768610898565b600073ffffffffffffffffffffffffffffffffffffffff168173ffffffffffffffffffffffffffffffffffffffff16036107d7576040517f08c379a00000000000000000000000000000000000000000000000000000000081526004016107ce90611406565b60405180910390fd5b6107e081610916565b50565b60036020528060005260406000206000915090505481565b60008261080885846109da565b1490509392505050565b6108938363a9059cbb60e01b8484604051602401610831929190611426565b604051602081830303815290604052907bffffffffffffffffffffffffffffffffffffffffffffffffffffffff19166020820180517bffffffffffffffffffffffffffffffffffffffffffffffffffffffff8381831617835250505050610a30565b505050565b6108a0610af7565b73ffffffffffffffffffffffffffffffffffffffff166108be6104f1565b73ffffffffffffffffffffffffffffffffffffffff1614610914576040517f08c379a000000000000000000000000000000000000000000000000000000000815260040161090b9061149b565b60405180910390fd5b565b60008060009054906101000a900473ffffffffffffffffffffffffffffffffffffffff169050816000806101000a81548173ffffffffffffffffffffffffffffffffffffffff021916908373ffffffffffffffffffffffffffffffffffffffff1602179055508173ffffffffffffffffffffffffffffffffffffffff168173ffffffffffffffffffffffffffffffffffffffff167f8be0079c531659141344cd1fd0a4f28419497f9722a3daafe3b4186f6b6457e060405160405180910390a35050565b60008082905060005b8451811015610a2557610a1082868381518110610a0357610a026114bb565b5b6020026020010151610aff565b91508080610a1d906114ea565b9150506109e3565b508091505092915050565b6000610a92826040518060400160405280602081526020017f5361666545524332303a206c6f772d6c6576656c2063616c6c206661696c65648152508573ffffffffffffffffffffffffffffffffffffffff16610b2a9092919063ffffffff16565b9050600081511115610af25780806020019051810190610ab2919061155e565b610af1576040517f08c379a0000000000000000000000000000000000000000000000000000000008152600401610ae8906115fd565b60405180910390fd5b5b505050565b600033905090565b6000818310610b1757610b128284610b42565b610b22565b610b218383610b42565b5b905092915050565b6060610b398484600085610b59565b90509392505050565b600082600052816020526040600020905092915050565b606082471015610b9e576040517f08c379a0000000000000000000000000000000000000000000000000000000008152600401610b959061168f565b60405180910390fd5b610ba785610c6d565b610be6576040517f08c379a0000000000000000000000000000000000000000000000000000000008152600401610bdd906116fb565b60405180910390fd5b6000808673ffffffffffffffffffffffffffffffffffffffff168587604051610c0f919061178c565b60006040518083038185875af1925050503d8060008114610c4c576040519150601f19603f3d011682016040523d82523d6000602084013e610c51565b606091505b5091509150610c61828286610c90565b92505050949350505050565b6000808273ffffffffffffffffffffffffffffffffffffffff163b119050919050565b60608315610ca057829050610cf0565b600083511115610cb35782518084602001fd5b816040517f08c379a0000000000000000000000000000000000000000000000000000000008152600401610ce791906117f8565b60405180910390fd5b9392505050565b600080fd5b600080fd5b600073ffffffffffffffffffffffffffffffffffffffff82169050919050565b6000610d2c82610d01565b9050919050565b610d3c81610d21565b8114610d4757600080fd5b50565b600081359050610d5981610d33565b92915050565b6000819050919050565b610d7281610d5f565b8114610d7d57600080fd5b50565b600081359050610d8f81610d69565b92915050565b600080fd5b600080fd5b600080fd5b60008083601f840112610dba57610db9610d95565b5b8235905067ffffffffffffffff811115610dd757610dd6610d9a565b5b602083019150836020820283011115610df357610df2610d9f565b5b9250929050565b60008060008060608587031215610e1457610e13610cf7565b5b6000610e2287828801610d4a565b9450506020610e3387828801610d80565b935050604085013567ffffffffffffffff811115610e5457610e53610cfc565b5b610e6087828801610da4565b925092505092959194509250565b6000819050919050565b610e8181610e6e565b8114610e8c57600080fd5b50565b600081359050610e9e81610e78565b92915050565b600060208284031215610eba57610eb9610cf7565b5b6000610ec884828501610e8f565b91505092915050565b610eda81610d21565b82525050565b6000602082019050610ef56000830184610ed1565b92915050565b60008060408385031215610f1257610f11610cf7565b5b6000610f2085828601610d4a565b9250506020610f3185828601610d80565b9150509250929050565b610f4481610e6e565b82525050565b6000602082019050610f5f6000830184610f3b565b92915050565b610f6e81610d5f565b82525050565b6000602082019050610f896000830184610f65565b92915050565b60008115159050919050565b610fa481610f8f565b82525050565b6000602082019050610fbf6000830184610f9b565b92915050565b600060208284031215610fdb57610fda610cf7565b5b6000610fe984828501610d80565b91505092915050565b6000819050919050565b600061101761101261100d84610d01565b610ff2565b610d01565b9050919050565b600061102982610ffc565b9050919050565b600061103b8261101e565b9050919050565b61104b81611030565b82525050565b60006020820190506110666000830184611042565b92915050565b60006020828403121561108257611081610cf7565b5b600061109084828501610d4a565b91505092915050565b600082825260208201905092915050565b7f50505265776172643a20656e6465640000000000000000000000000000000000600082015250565b60006110e0600f83611099565b91506110eb826110aa565b602082019050919050565b6000602082019050818103600083015261110f816110d3565b9050919050565b7f416c726561647920436c61696d65640000000000000000000000000000000000600082015250565b600061114c600f83611099565b915061115782611116565b602082019050919050565b6000602082019050818103600083015261117b8161113f565b9050919050565b60008160601b9050919050565b600061119a82611182565b9050919050565b60006111ac8261118f565b9050919050565b6111c46111bf82610d21565b6111a1565b82525050565b6000819050919050565b6111e56111e082610d5f565b6111ca565b82525050565b60006111f782856111b3565b60148201915061120782846111d4565b6020820191508190509392505050565b7f4e6f7420696e2074686520726577617264206c69737400000000000000000000600082015250565b600061124d601683611099565b915061125882611217565b602082019050919050565b6000602082019050818103600083015261127c81611240565b9050919050565b7f50505265776172643a206e6f7420656e64656420796574000000000000000000600082015250565b60006112b9601783611099565b91506112c482611283565b602082019050919050565b600060208201905081810360008301526112e8816112ac565b9050919050565b6000815190506112fe81610d69565b92915050565b60006020828403121561131a57611319610cf7565b5b6000611328848285016112ef565b91505092915050565b7f4e487b7100000000000000000000000000000000000000000000000000000000600052601160045260246000fd5b600061136b82610d5f565b915061137683610d5f565b925082820190508082111561138e5761138d611331565b5b92915050565b7f4f776e61626c653a206e6577206f776e657220697320746865207a65726f206160008201527f6464726573730000000000000000000000000000000000000000000000000000602082015250565b60006113f0602683611099565b91506113fb82611394565b604082019050919050565b6000602082019050818103600083015261141f816113e3565b9050919050565b600060408201905061143b6000830185610ed1565b6114486020830184610f65565b9392505050565b7f4f776e61626c653a2063616c6c6572206973206e6f7420746865206f776e6572600082015250565b6000611485602083611099565b91506114908261144f565b602082019050919050565b600060208201905081810360008301526114b481611478565b9050919050565b7f4e487b7100000000000000000000000000000000000000000000000000000000600052603260045260246000fd5b60006114f582610d5f565b91507fffffffffffffffffffffffffffffffffffffffffffffffffffffffffffffffff820361152757611526611331565b5b600182019050919050565b61153b81610f8f565b811461154657600080fd5b50565b60008151905061155881611532565b92915050565b60006020828403121561157457611573610cf7565b5b600061158284828501611549565b91505092915050565b7f5361666545524332303a204552433230206f7065726174696f6e20646964206e60008201527f6f74207375636365656400000000000000000000000000000000000000000000602082015250565b60006115e7602a83611099565b91506115f28261158b565b604082019050919050565b60006020820190508181036000830152611616816115da565b9050919050565b7f416464726573733a20696e73756666696369656e742062616c616e636520666f60008201527f722063616c6c0000000000000000000000000000000000000000000000000000602082015250565b6000611679602683611099565b91506116848261161d565b604082019050919050565b600060208201905081810360008301526116a88161166c565b9050919050565b7f416464726573733a2063616c6c20746f206e6f6e2d636f6e7472616374000000600082015250565b60006116e5601d83611099565b91506116f0826116af565b602082019050919050565b60006020820190508181036000830152611714816116d8565b9050919050565b600081519050919050565b600081905092915050565b60005b8381101561174f578082015181840152602081019050611734565b60008484015250505050565b60006117668261171b565b6117708185611726565b9350611780818560208601611731565b80840191505092915050565b6000611798828461175b565b915081905092915050565b600081519050919050565b6000601f19601f8301169050919050565b60006117ca826117a3565b6117d48185611099565b93506117e4818560208601611731565b6117ed816117ae565b840191505092915050565b6000602082019050818103600083015261181281846117bf565b90509291505056fea26469706673582212205281a3910dcb4705dc58bcbe84fab4b433d52c4b8660bcb2c7e5dea5c2ea465f64736f6c63430008110033",
  "devdoc": {
    "kind": "dev",
    "methods": {
      "owner()": {
        "details": "Returns the address of the current owner."
      },
      "renounceOwnership()": {
        "details": "Leaves the contract without owner. It will not be possible to call `onlyOwner` functions anymore. Can only be called by the current owner. NOTE: Renouncing ownership will leave the contract without an owner, thereby removing any functionality that is only available to the owner."
      },
      "transferOwnership(address)": {
        "details": "Transfers ownership of the contract to a new account (`newOwner`). Can only be called by the current owner."
      }
    },
    "version": 1
  },
  "userdoc": {
    "kind": "user",
    "methods": {
      "claim(address,uint256,bytes32[])": {
        "notice": "Claim DEG reward with the proof"
      },
      "revoke()": {
        "notice": "Revoke the remaining DEG tokens"
      },
      "setMerkleRoot(bytes32)": {
        "notice": "Set merkle root by the owner"
      }
    },
    "notice": "Protocol Protection Testnet Reward Contract         User reward information is in the form:         [address: 0xabcd, amount: 1 ether]         All info is stored in a merkle tree and this contract verify the proof.",
    "version": 1
  },
  "storageLayout": {
    "storage": [
      {
        "astId": 7,
        "contract": "contracts/PPReward.sol:PPReward",
        "label": "_owner",
        "offset": 0,
        "slot": "0",
        "type": "t_address"
      },
      {
        "astId": 1348,
        "contract": "contracts/PPReward.sol:PPReward",
        "label": "endTimestamp",
        "offset": 0,
        "slot": "1",
        "type": "t_uint256"
      },
      {
        "astId": 1350,
        "contract": "contracts/PPReward.sol:PPReward",
        "label": "root",
        "offset": 0,
        "slot": "2",
        "type": "t_bytes32"
      },
      {
        "astId": 1354,
        "contract": "contracts/PPReward.sol:PPReward",
        "label": "alreadyClaimed",
        "offset": 0,
        "slot": "3",
        "type": "t_mapping(t_address,t_uint256)"
      }
    ],
    "types": {
      "t_address": {
        "encoding": "inplace",
        "label": "address",
        "numberOfBytes": "20"
      },
      "t_bytes32": {
        "encoding": "inplace",
        "label": "bytes32",
        "numberOfBytes": "32"
      },
      "t_mapping(t_address,t_uint256)": {
        "encoding": "mapping",
        "key": "t_address",
        "label": "mapping(address => uint256)",
        "numberOfBytes": "32",
        "value": "t_uint256"
      },
      "t_uint256": {
        "encoding": "inplace",
        "label": "uint256",
        "numberOfBytes": "32"
      }
    }
  }
}