{
  "address": "0x0731fBA1fd40C613893cF7c67d51bb2aCB6F197E",
  "abi": [
    {
      "inputs": [
        {
          "internalType": "address",
          "name": "_deg",
          "type": "address"
        },
        {
          "internalType": "uint256",
          "name": "_duration",
          "type": "uint256"
        }
      ],
      "stateMutability": "nonpayable",
      "type": "constructor"
    },
    {
      "anonymous": false,
      "inputs": [
        {
          "indexed": true,
          "internalType": "address",
          "name": "user",
          "type": "address"
        },
        {
          "indexed": false,
          "internalType": "uint256",
          "name": "amount",
          "type": "uint256"
        }
      ],
      "name": "Claim",
      "type": "event"
    },
    {
      "anonymous": false,
      "inputs": [
        {
          "indexed": true,
          "internalType": "address",
          "name": "previousOwner",
          "type": "address"
        },
        {
          "indexed": true,
          "internalType": "address",
          "name": "newOwner",
          "type": "address"
        }
      ],
      "name": "OwnershipTransferred",
      "type": "event"
    },
    {
      "inputs": [],
      "name": "DEG",
      "outputs": [
        {
          "internalType": "contract IERC20",
          "name": "",
          "type": "address"
        }
      ],
      "stateMutability": "view",
      "type": "function"
    },
    {
      "inputs": [
        {
          "internalType": "address",
          "name": "",
          "type": "address"
        }
      ],
      "name": "alreadyClaimed",
      "outputs": [
        {
          "internalType": "uint256",
          "name": "",
          "type": "uint256"
        }
      ],
      "stateMutability": "view",
      "type": "function"
    },
    {
      "inputs": [
        {
          "internalType": "address",
          "name": "_to",
          "type": "address"
        },
        {
          "internalType": "uint256",
          "name": "_amount",
          "type": "uint256"
        },
        {
          "internalType": "bytes32[]",
          "name": "_proof",
          "type": "bytes32[]"
        }
      ],
      "name": "claim",
      "outputs": [],
      "stateMutability": "nonpayable",
      "type": "function"
    },
    {
      "inputs": [],
      "name": "endTimestamp",
      "outputs": [
        {
          "internalType": "uint256",
          "name": "",
          "type": "uint256"
        }
      ],
      "stateMutability": "view",
      "type": "function"
    },
    {
      "inputs": [
        {
          "internalType": "address",
          "name": "_to",
          "type": "address"
        },
        {
          "internalType": "uint256",
          "name": "_amount",
          "type": "uint256"
        }
      ],
      "name": "getLeaf",
      "outputs": [
        {
          "internalType": "bytes32",
          "name": "",
          "type": "bytes32"
        }
      ],
      "stateMutability": "pure",
      "type": "function"
    },
    {
      "inputs": [
        {
          "internalType": "address",
          "name": "_to",
          "type": "address"
        },
        {
          "internalType": "uint256",
          "name": "_amount",
          "type": "uint256"
        },
        {
          "internalType": "bytes32[]",
          "name": "_proof",
          "type": "bytes32[]"
        }
      ],
      "name": "isClaimable",
      "outputs": [
        {
          "internalType": "bool",
          "name": "",
          "type": "bool"
        }
      ],
      "stateMutability": "view",
      "type": "function"
    },
    {
      "inputs": [],
      "name": "owner",
      "outputs": [
        {
          "internalType": "address",
          "name": "",
          "type": "address"
        }
      ],
      "stateMutability": "view",
      "type": "function"
    },
    {
      "inputs": [],
      "name": "renounceOwnership",
      "outputs": [],
      "stateMutability": "nonpayable",
      "type": "function"
    },
    {
      "inputs": [],
      "name": "revoke",
      "outputs": [],
      "stateMutability": "nonpayable",
      "type": "function"
    },
    {
      "inputs": [],
      "name": "root",
      "outputs": [
        {
          "internalType": "bytes32",
          "name": "",
          "type": "bytes32"
        }
      ],
      "stateMutability": "view",
      "type": "function"
    },
    {
      "inputs": [
        {
          "internalType": "bytes32",
          "name": "_root",
          "type": "bytes32"
        }
      ],
      "name": "setMerkleRoot",
      "outputs": [],
      "stateMutability": "nonpayable",
      "type": "function"
    },
    {
      "inputs": [
        {
          "internalType": "address",
          "name": "newOwner",
          "type": "address"
        }
      ],
      "name": "transferOwnership",
      "outputs": [],
      "stateMutability": "nonpayable",
      "type": "function"
    }
  ],
  "transactionHash": "0x10d8f111f305c9d6a98ee9b47acc3e095ccf1aaf133432408eb8d0857e320364",
  "args": [
    "0xf70b735ABAc85720514feF0D605b6D0C07da0829",
    2592000
  ],
  "numDeployments": 1,
  "solcInputHash": "f88383e0b8a16147851df08071d9a4a4",
  "bytecode": "0x60c06040523480156200001157600080fd5b5060405162001b0838038062001b08833981810160405281019062000037919062000219565b620000576200004b620000a860201b60201c565b620000b060201b60201c565b8173ffffffffffffffffffffffffffffffffffffffff1660808173ffffffffffffffffffffffffffffffffffffffff168152505080426200009991906200028f565b60a081815250505050620002ca565b600033905090565b60008060009054906101000a900473ffffffffffffffffffffffffffffffffffffffff169050816000806101000a81548173ffffffffffffffffffffffffffffffffffffffff021916908373ffffffffffffffffffffffffffffffffffffffff1602179055508173ffffffffffffffffffffffffffffffffffffffff168173ffffffffffffffffffffffffffffffffffffffff167f8be0079c531659141344cd1fd0a4f28419497f9722a3daafe3b4186f6b6457e060405160405180910390a35050565b600080fd5b600073ffffffffffffffffffffffffffffffffffffffff82169050919050565b6000620001a68262000179565b9050919050565b620001b88162000199565b8114620001c457600080fd5b50565b600081519050620001d881620001ad565b92915050565b6000819050919050565b620001f381620001de565b8114620001ff57600080fd5b50565b6000815190506200021381620001e8565b92915050565b6000806040838503121562000233576200023262000174565b5b60006200024385828601620001c7565b9250506020620002568582860162000202565b9150509250929050565b7f4e487b7100000000000000000000000000000000000000000000000000000000600052601160045260246000fd5b60006200029c82620001de565b9150620002a983620001de565b9250828201905080821115620002c457620002c362000260565b5b92915050565b60805160a0516117f5620003136000396000818161022b015281816105360152610562015260008181610418015281816105cf01528181610669015261073e01526117f56000f3fe608060405234801561001057600080fd5b50600436106100b45760003560e01c8063b6549f7511610071578063b6549f7514610167578063be7bcba014610171578063e3b93b60146101a1578063ebf0c717146101bf578063f2fde38b146101dd578063f54b893b146101f9576100b4565b80633d13f874146100b9578063715018a6146100d55780637cb64759146100df5780638da5cb5b146100fb5780639641f52114610119578063a85adeab14610149575b600080fd5b6100d360048036038101906100ce9190610e00565b610229565b005b6100dd6104b2565b005b6100f960048036038101906100f49190610eaa565b6104c6565b005b6101036104d8565b6040516101109190610ee6565b60405180910390f35b610133600480360381019061012e9190610f01565b610501565b6040516101409190610f50565b60405180910390f35b610151610534565b60405161015e9190610f7a565b60405180910390f35b61016f610558565b005b61018b60048036038101906101869190610e00565b6106af565b6040516101989190610fb0565b60405180910390f35b6101a961073c565b6040516101b6919061102a565b60405180910390f35b6101c7610760565b6040516101d49190610f50565b60405180910390f35b6101f760048036038101906101f29190611045565b610766565b005b610213600480360381019061020e9190611045565b6107e9565b6040516102209190610f7a565b60405180910390f35b7f0000000000000000000000000000000000000000000000000000000000000000421061028b576040517f08c379a0000000000000000000000000000000000000000000000000000000008152600401610282906110cf565b60405180910390fd5b6000600260008673ffffffffffffffffffffffffffffffffffffffff1673ffffffffffffffffffffffffffffffffffffffff168152602001908152602001600020541461030d576040517f08c379a00000000000000000000000000000000000000000000000000000000081526004016103049061113b565b60405180910390fd5b600084846040516020016103229291906111c4565b604051602081830303815290604052805190602001209050600061038a848480806020026020016040519081016040528093929190818152602001838360200280828437600081840152601f19601f8201169050808301925050505050505060015484610801565b9050806103cc576040517f08c379a00000000000000000000000000000000000000000000000000000000081526004016103c39061123c565b60405180910390fd5b6001600260008873ffffffffffffffffffffffffffffffffffffffff1673ffffffffffffffffffffffffffffffffffffffff1681526020019081526020016000208190555061045c86867f000000000000000000000000000000000000000000000000000000000000000073ffffffffffffffffffffffffffffffffffffffff166108189092919063ffffffff16565b8573ffffffffffffffffffffffffffffffffffffffff167f47cee97cb7acd717b3c0aa1435d004cd5b3c8c57d70dbceb4e4458bbd60e39d4866040516104a29190610f7a565b60405180910390a2505050505050565b6104ba61089e565b6104c4600061091c565b565b6104ce61089e565b8060018190555050565b60008060009054906101000a900473ffffffffffffffffffffffffffffffffffffffff16905090565b600082826040516020016105169291906111c4565b60405160208183030381529060405280519060200120905092915050565b7f000000000000000000000000000000000000000000000000000000000000000081565b61056061089e565b7f000000000000000000000000000000000000000000000000000000000000000042116105c2576040517f08c379a00000000000000000000000000000000000000000000000000000000081526004016105b9906112a8565b60405180910390fd5b6106ad6105cd6104d8565b7f000000000000000000000000000000000000000000000000000000000000000073ffffffffffffffffffffffffffffffffffffffff166370a08231306040518263ffffffff1660e01b81526004016106269190610ee6565b602060405180830381865afa158015610643573d6000803e3d6000fd5b505050506040513d601f19601f8201168201806040525081019061066791906112dd565b7f000000000000000000000000000000000000000000000000000000000000000073ffffffffffffffffffffffffffffffffffffffff166108189092919063ffffffff16565b565b60008085856040516020016106c59291906111c4565b604051602081830303815290604052805190602001209050600061072d858580806020026020016040519081016040528093929190818152602001838360200280828437600081840152601f19601f8201169050808301925050505050505060015484610801565b90508092505050949350505050565b7f000000000000000000000000000000000000000000000000000000000000000081565b60015481565b61076e61089e565b600073ffffffffffffffffffffffffffffffffffffffff168173ffffffffffffffffffffffffffffffffffffffff16036107dd576040517f08c379a00000000000000000000000000000000000000000000000000000000081526004016107d49061137c565b60405180910390fd5b6107e68161091c565b50565b60026020528060005260406000206000915090505481565b60008261080e85846109e0565b1490509392505050565b6108998363a9059cbb60e01b848460405160240161083792919061139c565b604051602081830303815290604052907bffffffffffffffffffffffffffffffffffffffffffffffffffffffff19166020820180517bffffffffffffffffffffffffffffffffffffffffffffffffffffffff8381831617835250505050610a36565b505050565b6108a6610afd565b73ffffffffffffffffffffffffffffffffffffffff166108c46104d8565b73ffffffffffffffffffffffffffffffffffffffff161461091a576040517f08c379a000000000000000000000000000000000000000000000000000000000815260040161091190611411565b60405180910390fd5b565b60008060009054906101000a900473ffffffffffffffffffffffffffffffffffffffff169050816000806101000a81548173ffffffffffffffffffffffffffffffffffffffff021916908373ffffffffffffffffffffffffffffffffffffffff1602179055508173ffffffffffffffffffffffffffffffffffffffff168173ffffffffffffffffffffffffffffffffffffffff167f8be0079c531659141344cd1fd0a4f28419497f9722a3daafe3b4186f6b6457e060405160405180910390a35050565b60008082905060005b8451811015610a2b57610a1682868381518110610a0957610a08611431565b5b6020026020010151610b05565b91508080610a239061148f565b9150506109e9565b508091505092915050565b6000610a98826040518060400160405280602081526020017f5361666545524332303a206c6f772d6c6576656c2063616c6c206661696c65648152508573ffffffffffffffffffffffffffffffffffffffff16610b309092919063ffffffff16565b9050600081511115610af85780806020019051810190610ab89190611503565b610af7576040517f08c379a0000000000000000000000000000000000000000000000000000000008152600401610aee906115a2565b60405180910390fd5b5b505050565b600033905090565b6000818310610b1d57610b188284610b48565b610b28565b610b278383610b48565b5b905092915050565b6060610b3f8484600085610b5f565b90509392505050565b600082600052816020526040600020905092915050565b606082471015610ba4576040517f08c379a0000000000000000000000000000000000000000000000000000000008152600401610b9b90611634565b60405180910390fd5b610bad85610c73565b610bec576040517f08c379a0000000000000000000000000000000000000000000000000000000008152600401610be3906116a0565b60405180910390fd5b6000808673ffffffffffffffffffffffffffffffffffffffff168587604051610c159190611731565b60006040518083038185875af1925050503d8060008114610c52576040519150601f19603f3d011682016040523d82523d6000602084013e610c57565b606091505b5091509150610c67828286610c96565b92505050949350505050565b6000808273ffffffffffffffffffffffffffffffffffffffff163b119050919050565b60608315610ca657829050610cf6565b600083511115610cb95782518084602001fd5b816040517f08c379a0000000000000000000000000000000000000000000000000000000008152600401610ced919061179d565b60405180910390fd5b9392505050565b600080fd5b600080fd5b600073ffffffffffffffffffffffffffffffffffffffff82169050919050565b6000610d3282610d07565b9050919050565b610d4281610d27565b8114610d4d57600080fd5b50565b600081359050610d5f81610d39565b92915050565b6000819050919050565b610d7881610d65565b8114610d8357600080fd5b50565b600081359050610d9581610d6f565b92915050565b600080fd5b600080fd5b600080fd5b60008083601f840112610dc057610dbf610d9b565b5b8235905067ffffffffffffffff811115610ddd57610ddc610da0565b5b602083019150836020820283011115610df957610df8610da5565b5b9250929050565b60008060008060608587031215610e1a57610e19610cfd565b5b6000610e2887828801610d50565b9450506020610e3987828801610d86565b935050604085013567ffffffffffffffff811115610e5a57610e59610d02565b5b610e6687828801610daa565b925092505092959194509250565b6000819050919050565b610e8781610e74565b8114610e9257600080fd5b50565b600081359050610ea481610e7e565b92915050565b600060208284031215610ec057610ebf610cfd565b5b6000610ece84828501610e95565b91505092915050565b610ee081610d27565b82525050565b6000602082019050610efb6000830184610ed7565b92915050565b60008060408385031215610f1857610f17610cfd565b5b6000610f2685828601610d50565b9250506020610f3785828601610d86565b9150509250929050565b610f4a81610e74565b82525050565b6000602082019050610f656000830184610f41565b92915050565b610f7481610d65565b82525050565b6000602082019050610f8f6000830184610f6b565b92915050565b60008115159050919050565b610faa81610f95565b82525050565b6000602082019050610fc56000830184610fa1565b92915050565b6000819050919050565b6000610ff0610feb610fe684610d07565b610fcb565b610d07565b9050919050565b600061100282610fd5565b9050919050565b600061101482610ff7565b9050919050565b61102481611009565b82525050565b600060208201905061103f600083018461101b565b92915050565b60006020828403121561105b5761105a610cfd565b5b600061106984828501610d50565b91505092915050565b600082825260208201905092915050565b7f50505265776172643a20656e6465640000000000000000000000000000000000600082015250565b60006110b9600f83611072565b91506110c482611083565b602082019050919050565b600060208201905081810360008301526110e8816110ac565b9050919050565b7f416c726561647920436c61696d65640000000000000000000000000000000000600082015250565b6000611125600f83611072565b9150611130826110ef565b602082019050919050565b6000602082019050818103600083015261115481611118565b9050919050565b60008160601b9050919050565b60006111738261115b565b9050919050565b600061118582611168565b9050919050565b61119d61119882610d27565b61117a565b82525050565b6000819050919050565b6111be6111b982610d65565b6111a3565b82525050565b60006111d0828561118c565b6014820191506111e082846111ad565b6020820191508190509392505050565b7f4e6f7420696e2074686520726577617264206c69737400000000000000000000600082015250565b6000611226601683611072565b9150611231826111f0565b602082019050919050565b6000602082019050818103600083015261125581611219565b9050919050565b7f50505265776172643a206e6f7420656e64656420796574000000000000000000600082015250565b6000611292601783611072565b915061129d8261125c565b602082019050919050565b600060208201905081810360008301526112c181611285565b9050919050565b6000815190506112d781610d6f565b92915050565b6000602082840312156112f3576112f2610cfd565b5b6000611301848285016112c8565b91505092915050565b7f4f776e61626c653a206e6577206f776e657220697320746865207a65726f206160008201527f6464726573730000000000000000000000000000000000000000000000000000602082015250565b6000611366602683611072565b91506113718261130a565b604082019050919050565b6000602082019050818103600083015261139581611359565b9050919050565b60006040820190506113b16000830185610ed7565b6113be6020830184610f6b565b9392505050565b7f4f776e61626c653a2063616c6c6572206973206e6f7420746865206f776e6572600082015250565b60006113fb602083611072565b9150611406826113c5565b602082019050919050565b6000602082019050818103600083015261142a816113ee565b9050919050565b7f4e487b7100000000000000000000000000000000000000000000000000000000600052603260045260246000fd5b7f4e487b7100000000000000000000000000000000000000000000000000000000600052601160045260246000fd5b600061149a82610d65565b91507fffffffffffffffffffffffffffffffffffffffffffffffffffffffffffffffff82036114cc576114cb611460565b5b600182019050919050565b6114e081610f95565b81146114eb57600080fd5b50565b6000815190506114fd816114d7565b92915050565b60006020828403121561151957611518610cfd565b5b6000611527848285016114ee565b91505092915050565b7f5361666545524332303a204552433230206f7065726174696f6e20646964206e60008201527f6f74207375636365656400000000000000000000000000000000000000000000602082015250565b600061158c602a83611072565b915061159782611530565b604082019050919050565b600060208201905081810360008301526115bb8161157f565b9050919050565b7f416464726573733a20696e73756666696369656e742062616c616e636520666f60008201527f722063616c6c0000000000000000000000000000000000000000000000000000602082015250565b600061161e602683611072565b9150611629826115c2565b604082019050919050565b6000602082019050818103600083015261164d81611611565b9050919050565b7f416464726573733a2063616c6c20746f206e6f6e2d636f6e7472616374000000600082015250565b600061168a601d83611072565b915061169582611654565b602082019050919050565b600060208201905081810360008301526116b98161167d565b9050919050565b600081519050919050565b600081905092915050565b60005b838110156116f45780820151818401526020810190506116d9565b60008484015250505050565b600061170b826116c0565b61171581856116cb565b93506117258185602086016116d6565b80840191505092915050565b600061173d8284611700565b915081905092915050565b600081519050919050565b6000601f19601f8301169050919050565b600061176f82611748565b6117798185611072565b93506117898185602086016116d6565b61179281611753565b840191505092915050565b600060208201905081810360008301526117b78184611764565b90509291505056fea2646970667358221220666acef5071efb8b00124a6ade1d7e984db3e8b05e9760759ba9179bd77cfd7764736f6c63430008110033",
  "devdoc": {
    "kind": "dev",
    "methods": {
      "owner()": {
        "details": "Returns the address of the current owner."
      },
      "renounceOwnership()": {
        "details": "Leaves the contract without owner. It will not be possible to call `onlyOwner` functions anymore. Can only be called by the current owner. NOTE: Renouncing ownership will leave the contract without an owner, thereby removing any functionality that is only available to the owner."
      },
      "transferOwnership(address)": {
        "details": "Transfers ownership of the contract to a new account (`newOwner`). Can only be called by the current owner."
      }
    },
    "version": 1
  },
  "userdoc": {
    "kind": "user",
    "methods": {
      "claim(address,uint256,bytes32[])": {
        "notice": "Claim DEG reward with the proof"
      },
      "revoke()": {
        "notice": "Revoke the remaining DEG tokens"
      },
      "setMerkleRoot(bytes32)": {
        "notice": "Set merkle root by the owner"
      }
    },
    "notice": "Protocol Protection Testnet Reward Contract         User reward information is in the form:         [address: 0xabcd, amount: 1 ether]         All info is stored in a merkle tree and this contract verify the proof.",
    "version": 1
  },
  "storageLayout": {
    "storage": [
      {
        "astId": 7,
        "contract": "contracts/PPReward.sol:PPReward",
        "label": "_owner",
        "offset": 0,
        "slot": "0",
        "type": "t_address"
      },
      {
        "astId": 2104,
        "contract": "contracts/PPReward.sol:PPReward",
        "label": "root",
        "offset": 0,
        "slot": "1",
        "type": "t_bytes32"
      },
      {
        "astId": 2108,
        "contract": "contracts/PPReward.sol:PPReward",
        "label": "alreadyClaimed",
        "offset": 0,
        "slot": "2",
        "type": "t_mapping(t_address,t_uint256)"
      }
    ],
    "types": {
      "t_address": {
        "encoding": "inplace",
        "label": "address",
        "numberOfBytes": "20"
      },
      "t_bytes32": {
        "encoding": "inplace",
        "label": "bytes32",
        "numberOfBytes": "32"
      },
      "t_mapping(t_address,t_uint256)": {
        "encoding": "mapping",
        "key": "t_address",
        "label": "mapping(address => uint256)",
        "numberOfBytes": "32",
        "value": "t_uint256"
      },
      "t_uint256": {
        "encoding": "inplace",
        "label": "uint256",
        "numberOfBytes": "32"
      }
    }
  }
}